:1000000002308A002F2A000042284D102D10A53AF8
:100010000D050000F801F901F701FA014708031D79
:100020001428460803192E281030C8000310C40DE8
:10003000C50DF70DFA0D47087A02031D2128460861
:100040007702031C2A284608F702031CFA03470814
:10005000FA020314F80DF90DC80B16280800103029
:10006000CA00F701FA01C70CC60C031C3D2848085A
:10007000F7070318FA0A4908FA07FA0CF70CF90C03
:10008000F80CCA0B332808004408F801430203188F
:100090004C284308F7005828F7010830C500C30D65
:1000A000F70D440877020318F700F80DC50B4F2829
:1000B00008004208B8004108B7000230AA07031838
:1000C000AB0A2C082A02BB002B08BC002D08031C1D
:1000D0002D0FBC0238083302031CA228031D74280C
:1000E000320837020318A2283A08C5003908C400AC
:1000F000C7010530C6000A207908C4007808C3008B
:100100004408C7004308C600C9010330C8002F20B7
:100110007908FA007A083C02031CA228031D9428DF
:100120003B0878020318A22838083102031CA228D1
:10013000031D9E28300837020318A2283808B10092
:100140003708B00033083802031CBA28031DAC2856
:10015000370832020318BA282F083802031CBA28BD
:10016000031DB62837082E020318BA283808AF0036
:100170003708AE00BC08031DC1283B08FA3C031831
:10018000492933083802031C4929031DCB283708A5
:10019000320203184929351949293A08C500390896
:1001A000C400C7010530C6000A207908C5007808D8
:1001B000C4004508C7004408C600C9010330C80090
:1001C0002F207908FA007A083C02031C4929031DF4
:1001D000ED283B0878020318492935152C082A0216
:1001E000B9002B08BA002D08031C2D0FBA022B08EA
:1001F000AD002A08AC00B51C0B29B510BE013E08A5
:10020000093C031C0B2920303E0784008313390866
:100210008000BE0AFF28351C10293510B51481292D
:10022000BD01BE01BE013E08083C031C332920303D
:100230003E07F800FA010318FA0A01303E07203E93
:10024000840083130008C5007808840083137A189B
:1002500083174508800020303E0784008313000880
:10026000BD07BE0A13293908A9002908BD073D08A2
:10027000C3000A30C40044207808BD00EA30C5003D
:100280006030C400C7013D08C6000A207808B600E7
:10029000B51538083302031C6929031D5329320898
:1002A000370203186929351D6929351130082E02D6
:1002B000B4000310340C3007B2003108B300031847
:1002C000B30A3308AF003208AE003308B100320879
:1002D000B0003C08083C03188129FF3A031D74292B
:1002E0003B08C43C031881290230B300B201AF00BF
:1002F000AE01B100B0012B08AD002A08AC003514E6
:10030000B5108A110A12992A0B08C2008B138316A2
:1003100003178C170C140000000083120313C21B78
:100320008B170318BC2903170C087F390313C2006D
:1003300003170D080313C30003170F080313C400AA
:1003400042080C1EA1299900430803178D000313CE
:10035000440803178F0003130B08C5008B13831683
:1003600003178C170C140000000083120313C51B25
:100370008B17C10BBC29DC2903170C0D0E0D7F391F
:100380000313C20003170D080313C30003170F085C
:100390000313C40042080C1ECB299900430803171D
:1003A0008D000313440803178F008D0A03198F0A69
:1003B00003100313C10B84298A110A12A52A780895
:1003C0004108C3006430C40044207708C1007808A5
:1003D0003030031DF229C21CFA29C219FA29421A27
:1003E0002030F529C21142124214F80778080C1E79
:1003F000F72999004108C3000A30C4004420770857
:10040000C10078083030031D0B2AC219102A421C83
:10041000102A421A2030F80778080C1E0D2A99007D
:100420003030C10741080C1E132A99008A110A12A4
:10043000AA2A413084008313000803192C2A0230B1
:10044000F800F701F70B222AF80B212A9730F70062
:10045000F70B282A800B1F2A8A110A12B52A0308D3
:100460001F398300713083168F0090010F08031726
:1004700087110C3003139900A2309800903083123A
:100480009800AB01AA01AD01AC010230AF00AE0192
:100490000230B100B0010230B300B2016430B400E8
:1004A0000230BA005830B900BD01BE01C001BF0121
:1004B000831603170908C039890003131F129F12FE
:1004C0000030031788008312870188018901831394
:1004D00003133511B5113514B51083160317090828
:1004E000C039890003131F129F12013003178800BF
:1004F000831203131F179F1783169F1783121F144E
:100500000030F8001F08C33978049F004230F7001C
:10051000F70B882A00009F149F188C2A83161E0848
:100520008312BF001E08C0004008C2003F08C1007F
:100530005928B51DB22A043003178D0000308F00F2
:10054000031006300313C10084293608C1001B3094
:10055000C200DF290D300C1EAB2A99000A300C1E98
:0E056000AF2A99001430C100192A8B2A6300BB
:04400E00C42FFF3F7D
:00000001FF
;PIC16F886
;CRC=DE61  CREATED="10-มี.ค.-21 01:52"
